:020000040800F2
:1000000000200010D5CF02083DD00208A938000812
:100010003DD002083DD002083DD00208000000009B
:100020000000000000000000000000003DD00208B9
:100030003DD00208000000003DD002082931000830
:100040003DD002083DD002083DD002083DD0020854
:100050003DD002083DD0020839390008653A000851
:10006000293A0008ED390008B1390008597B000829
:10007000497B0008397B0008297B0008197B0008B0
:10008000057B0008F17A00083DD002083DD0020847
:100090003DD002083DD002083DD002087539000865
:1000A0007920000885230008AD1F000801250008FD
:1000B000C92200080D220008452100083DD0020891
:1000C0003DD002083DD002083DD002083DD00208D4
:1000D0003DD0020861320008E531000869310008AE
:1000E000FD3800083DD002083DD002083DD002088E
:1000F0003DD002083DD002083DD002083DD00208A4
:100100000000000000000000000000003DD00208D8
:100110003DD002083DD002083DD002083DD0020883
:10012000DD7A0008C97A0008B57A0008A17A0008CB
:100130008D7A00083DD00208000000000000000099
:100140003DD002083DD002083DD00208000000006A
:10015000000000000000000000000000000000009F
:1001600000000000000000003DD002083DD0020861
:100170003DD0020800000000000000000000000068
:08018000000000003DD0020860
:1001880003685A1C02601878704700BF704700BFA8
:10019800704700BF38B50B4C23688BB15A68821A78
:1001A800002A054604DA0BE05A68AA1A002A07DB77
:1001B80099681A682160184690472368002BF3D184
:1001C80038BD00BF0C140020436A8269D154436AC9
:1001D8000169C26B01338B4228BF002343623AB3E3
:1001E80070B4EFF31183502282F31288C66B326821
:1001F800D20704D5DBB283F3118870BC70477168ED
:1002080069B9D0E90942944218D085691544F56066
:1002180018D9A21A72608462002280F858203268C5
:1002280042F00102DBB2326083F3118870BC704780
:10023800426D136843F0800313607047012280F811
:100248005820D7E70469A21A72608162E4E700BF08
:10025800034610B4846BD968406954B19A6C8C1AFF
:10026800013A005D5DF8044B08BF0A46C0B29A64C3
:1002780070471A6A805C01328A4228BF2246C0B29F
:100288001A625DF8044B7047C36B13B190F85800BD
:100298007047D0E90903181AB0FA80F0400970478E
:1002A800D0E909120369914238BFC9188A1AC16B8B
:1002B800013B19B149680A449A4201D2981A704719
:1002C80000207047836B43B1826C5B689A4291BF90
:1002D800981AC0689B1AC0187047D0E907239A4239
:1002E8002FBFD01AC0688018C01A70470A4B30B5A3
:1002F80003F1140493F900205D78072AC8BF143A63
:10030800811804330D7313F8025C855413F8012C1B
:100318000A769C42EED130BD20EA020803682DE936
:10032800F0415D6A1DB12B46BDE8F0411847002A2F
:10033800174611DD04460E460F4400E023689B680B
:10034800204698470028F9D0236816F8011B1B6837
:1003580020469847BE42F1D1BDE8F08103681B6989
:10036800184700BF00232322027043708370C370B4
:10037800704700BF30B402681146531C036011F87F
:10038800024B0160D31C517803609378151D0560FA
:100398001B0443EA0123D078234343EA006030BCBE
:1003A800704700BF0368591C1A46016012F8021B07
:1003B8000260587841EA0020704700BF90ED057A46
:1003C80090ED004AD0ED066AD0ED014AD0ED047AEE
:1003D80090ED035AD0ED025AA4EE007AB0EE406ACE
:1003E800B0EE470AB0EE667AA4EE867A67EEC07A77
:1003F800A5EE407AE5EE867A80ED057AC0ED067ABC
:10040800704700BFD0ED057A90ED013AD0ED003A83
:10041800D0ED064A90ED024A90ED077A90ED035A26
:1004280090ED086AD0ED045AC0ED067AF0EE406A05
:1004380027EE830AC0ED056AA3EEA60A80ED087AC6
:10044800A4EE240AA5EE470AA5EEC60A80ED070A1F
:10045800704700BFD0ED007A90ED017A30EE670A60
:10046800E7EE007AB0EE670AC0ED007A704700BF89
:100478000028F0B403DA2D230B704042013109281B
:1004880004464FF0010307DD03EB83035B00B0FB79
:10049800F3F2092AF8D883B10F48A0FB0326B4FB6E
:1004A800F3F2092A02F1570C02F1300709DD03FBC8
:1004B8001244F30801F801CBEFD100230B70F0BC14
:1004C800704703FB1244F30801F8017BE5D10023D0
:1004D8000B70F0BC704700BFCDCCCCCC884270B458
:1004E8004FF0010442D301FB04F4B0FBF4F58D4254
:1004F800F9D2ECB142BB092D04FB150005F15706F2
:1005080005F130020EDDB4FBF1F403F8016B7CB1A8
:10051800B0FBF4F5092D04FB150005F1570605F1AC
:100528003002F0DCB4FBF1F403F8012B002CEFD11E
:1005380000221A7070BC704703F8016BB4FBF1F429
:10054800002CF5D0B0FBF4F5092D04FB150005F1DE
:10055800370605F13002EFDCB4FBF1F403F8012BA8
:10056800002CEFD100221A7070BC70470546002A93
:10057800EAD1C0E70A44914215D030B40139551E7A
:1005880041F2210211F8014F082380EA04200404F3
:100598004CBF82EA40004000013B80B2F7D18D4257
:1005A800F0D130BC7047704703685A1C026019705C
:1005B800704700BF2DE9F047089C2578002B80463E
:1005C80089460CBF4FF0200A4FF0300A661C25B34D
:1005D800002A26DD334601E0024698B113F8011BD4
:1005E800501E0029F8D1971E60B13D46013D514685
:1005F8004046C8476B1C002BF8DC257827EAE770D3
:10060800013045B1041B29464046C847301916F841
:10061800015B002DF7D1BDE8F087002A03DC2846EE
:10062800F9E70020EEE7571EDFE700BFF0B400252A
:100638000E4E00F1FF3C2F462C2165B103788B420A
:100648000BD003460CEB050403E013F8012F8A4294
:1006580003D0A342F9D1C155013701350B2D02D082
:1006680016F8011FE9E7F0BC704700BF34EA02083A
:100678002D212E222F23C17002714371704700BFB4
:1006880010230370704700BFF0B40025134F0572A4
:10069800461E0020114A0346ECB2032103E0013351
:1006A800112B0CD0917911F0020F02F11C02F6D037
:1006B80084420CD001330130112BC0B2F2D1002397
:1006C8000135082D06F8013FE3D1F0BC7047C3EBB4
:1006D800C30307EB83031B79F2E700BF9CFC020806
:1006E80004224FF47A730270436070472C2202236D
:1006F80002704370704700BF08307047704700BFF2
:1007080081617047012380F854307047437F33B1CB
:10071800012B03D14FF400638382704770474FF475
:10072800806383827047704770474378007840EA57
:10073800032010FB01F04FF4807190FBF1F000F3FF
:100748000F0000B270472DE9F04FDFF8DCC1754C9F
:10075800DCF804502288B4F90AA0C2EB2513520031
:10076800C2EBE502B4F902505B436A43B4F90450A2
:100778001B135D43AD1305EBE225B5F5FA324FEADD
:10078800E57B85B04BF1FF33CDE90023DDE900328D
:100798005343009AA561A2FB0289CDE90201B4F98D
:1007A80008200199009809EB43095143D31700FB2E
:1007B8000311A2FB00230B444FEAEA7B0AFB09F171
:1007C8001F0308FB0B13AAFB080119444FEA102A60
:1007D8004AEA016A16034FEA212B47EA12571AEB35
:1007E8000602E6884BEB070312F1000A43F5004BBB
:1007F800AAFB060106FB0B114A10CB1752EA0301AC
:1008080000F08E80B4F91060009806FB09F1F71724
:1008180008FB0711A6FB08673944B4F90E808B461C
:1008280001994FEAE87908FB01F100FB0911A8FBDF
:1008380000898944DCF808104FEA4947C1F5801C53
:1008480047EAD837B2464FEA4846B4F90C801AEB63
:10085800060A66464BEB070BF7174FEAC8060196E0
:1008680000260096F907DDE900674FEACC7016EB21
:100878000A0647EB0B0741EA5C01801B61EB0701A5
:1008880040F6354C8946A0FB0C010CFB09112CF0F5
:10089800D1F9B4F91620B4F914A04E13470B47EA5E
:1008A800C14702FB06FCD31707FB03CCA2FB0723B7
:1008B8006344564307FB0366A2FB07233344560EE3
:1008C80046EAC31632184FEA636747EB01038046CE
:1008D8000AFB01F14FEAEA7B08FB0B17AAFB0801A8
:1008E8003944C60C46EA413612EB06084FEAE1479E
:1008F800B4F9122043EB07094FEA182141EA0961CC
:1009080013010B44029A0AB11B0A1360039B23B11B
:1009180005EB850580352D121D6005B0BDE8F08F0B
:100928000023EFE7783500200C14002070472DE9EC
:10093800F041334B334E9A897489B6F91450B6F99D
:100948000480B6F90E70B6F920C01B69121B3489F1
:100958005443E213B6F912401544E40294FBF5F44B
:10096800B6F902501444A4F57A6E0EFB0EF20EFB93
:1009780005F50EFB08FEB6F90C80F4611213574317
:1009880002FB08F2121402EB6E32ED1205EBE727B8
:100998000232B6F90050B6F806E0921002F50042AD
:1009A80007EB85070EFB02F207FA0CF74FEAD23E77
:1009B80002374CF25032A3EBA70742FA0CF37B4301
:1009C80055BF5B00B3FBFEF3B3FBFEF35B0078B1EE
:1009D8001A1202FB02F540F6DE326A430A4D12147F
:1009E8005D4302EB254202F6CF6203EB221303605C
:1009F80021B10A235C43083424110C60BDE8F0815E
:100A08000C1400204035002043E3FFFF6D4B2DE917
:100A1800F04F5C696C4BB3F80AE0B3F804809A892C
:100A28004FEA0E2AB4EB0A044FEA1E6B4FF000059A
:100A380087B065EB0B05CDE900450746009C188992
:100A4800019EA0FB044500FB0655E00940EA45600D
:100A58004FEA08448C46E9114FEA184510EB0408A0
:100A6800D888009C41EB0509CDE90489A0FB044521
:100A7800B3F8028000FB0655200A40EA05604FEAF9
:100A8800C83429124FEA584510EB040841EB050910
:100A98000099A2FB010102FB06114FEAD05A4AEA6B
:100AA800412A1AF5FA634FEAE15B4BF10004B3F50A
:100AB800FA6FCDE9023474F10003424E64DA05247A
:100AC800AAFB040104FB0B1100FB0BF40AFB014415
:100AD800DDE90423A0FB0A0121444D104FEA30044C
:100AE800121B4FEA900463EB050344EA8174B8EBE8
:100AF8000408CDE90423DDE9023434484FEAA105AE
:100B080069EB05094FF0FF31834274EB010326DAE4
:100B180040F6AC501AEB00024FF000014BEB01031A
:100B280002FB03F1A2FB022303EB4103D400DD0027
:100B3800101B45EA527563EB0501DDE904452418ED
:100B48004D41CDE904450B24A2FB040104FB03112C
:100B580049104FEA3000B8EB000869EB0109DDE9FC
:100B680000325343009ADDE90201A2FB02AB0BEB12
:100B7800430B4FEADA7242EA4B02801A4FEAEB73F0
:100B880061EB0301CDE9020197B1B169A1FB08232B
:100B980001FB0933540D5D1544EAC324DDE9042340
:100BA800A21A65EB03031D46D30B43EA45433B609A
:100BB800BCF1000F02D0029BCCF8003007B0BDE8B2
:100BC800F08F00BF0C1400206435002024FAFFFFCA
:100BD80013B50C466A4603210C3022F0C7FCA0B1BD
:100BE8009DF800209DF8013043EA022323809DF8F8
:100BF80002209DF8033043EA0223A3809DF80420D5
:100C08009DF8053043EA0223638002B010BD07B5A2
:100C1800F7216A4622F0AAFC9DF801309DF80010E1
:100C28000B4A1B0143EA01339DF8021043EA1113F2
:100C380093609DF804309DF803101B0143EA0133CB
:100C48009DF8051043EA1113536003B05DF804FBE7
:100C58000C14002070B4D0E90041057B026902231E
:100C6800AB4063600B684FF6FE7003400B60EFF318
:100C78001183502181F31288D66B3168C9071CD4BF
:100C8800706870B9D2E909418C4213D095690D4456
:100C9800F56017D81469611A71609062002182F8B2
:100CA8005810326842F00102DBB2326083F31188D7
:100CB80070BC7047012182F85810DBB283F31188A9
:100CC80070BC7047611A71609462E7E770B4046899
:100CD800037B2268022101FA03F31A4217D0026942
:100CE8001249134802EB420201EB421205785068A0
:100CF800016875B9C568528928684FF6FE76304094
:100D08002860C868D24392B20240CA60636070BC6F
:100D18007047406902684FF6FE752A400260CA684B
:100D28004FF6FF600240CA60F0E700BFC4480020E9
:100D3800C04800202DE9F0478C4A8D4B12781C786A
:100D4800D207064648D58B4D012C00F091801ED362
:100D5800022C40F09B808849884A09881288884F6D
:100D6800914201D901241C70EB7AFBB12B89EBB1BC
:100D7800844B1B78D3B112F095FB002800F0E28079
:100D88002B7B83422CBF012300233B700FE0DFF84D
:100D9800E8C17B4F7C4CBCF800002288697B521A62
:100DA8008242DFDAEB7A0024002BDFD13B782A7904
:100DB800632A07D87549022C087800F0B880002803
:100DC80040F0A0807249AA7A9C4238BF1C460C7039
:100DD800002A44D1BDE8F087DFF89CC1654DBCF816
:100DE8000000BCF8021095F803E06A4F411A002988
:100DF800A4F10302B8BF4942704597F80080D2B207
:100E080011D32F7887420ED3012A45D9B8F1020FA2
:100E18009AD15C48604A007890800229CCBF0021B2
:100E28000121D18090E7B0EB4E0FEDDC012A40F2B2
:100E38008C800229EADC0324514F524852494F4A18
:100E48001C70B8F1020F4FF000033C7003700B8068
:100E5800138089D1504A01219380D18084E7012CE5
:100E68006BD0022CB6D10720BDE8F0471DF0BCB806
:100E7800424A41491288687B0988121A914207DD63
:100E8800414A12888A423CBF00241C703C4F6BE7E1
:100E980002241C703A4F67E70229B7DC95F800E096
:100EA80090FBFEFE0EF1010EBEF1080FDFF8D4A094
:100EB800AA786978DFF8C490334C314FA8BF4FF057
:100EC800080E8AF800E01FFA8EFA11FB0AF112FBED
:100ED8000AF2DFF8B8A0A9F8001092B200214FF08A
:100EE8006409B8F1020F228039701970CAF8041029
:100EF8008AF801907FF452AF274A0121A2F804E052
:100F0800D18048E74868301A244EB042C8BF4A70BA
:100F18003FF758AFC2F16402214E00FB02F086FB96
:100F28000062C017A0EBA250643048704AE700285E
:100F3800E8D101274E600F70ECE70820BDE8F047C4
:100F48001DF052B802233B7031E7032C7FF471AFD8
:100F5800B8F1020F9AD10B4A0F4B12789A800229E6
:100F6800CCBF00210121D980054FFDE6F0310020DA
:100F780040170020B22700208C340020441700209E
:100F8800A0170020923400204217002048170020A4
:100F9800B0270020B0260020B42600207F969800B5
:100FA8006BCA5F6B10B4272126240122002304702A
:100FB80041708270C3705DF8044B704770B5448807
:100FC8000546C4F30B04224608460E4600212CF0C1
:100FD8002AF92B69094A934202D3094A934205D355
:100FE8005BB121463046BDE870401847224630467E
:100FF8001946BDE870402CF0F2B870BDB45A030829
:101008008F5B030830B40123022514241521222202
:10101800057244704171C27003700371837030BCF3
:10102800704700BF30B50446406D21710368A2685F
:1010380023F00103036087B06379009213F0040F73
:101048004FEA03324FEA032314BF4FF480550025BB
:1010580003F4806302F400520195CDE902230025D0
:1010680011F0010305952ED1049308238D076946D5
:1010780048BF049326F070F82079636D617900F019
:101088000202002A15BF4FF440324FF480324FF469
:101098000034002410F0010F586808BF2246CC071E
:1010A8004CBF024320EA02025A609A6809074CBF03
:1010B80042F0080222F008029A601A6842F001021F
:1010C8001A6007B030BD042304930C23CEE700BF99
:1010D80030B50446406DA160036823F00103036046
:1010E8006379257987B013F0040F4FEA03324FEA8A
:1010F800032303F4806302F40052CDE90223009134
:1011080014BF4FF480510021EB0748BF042301911D
:101118004FF00001CDE9041154BF08230493694638
:1011280048BF0C23AD0748BF049326F015F8207973
:10113800636D617900F00202002A15BF4FF4403256
:101148004FF480324FF40034002410F0010F586837
:1011580008BF2246CC074CBF024320EA02025A606D
:101168009A6809074CBF42F0080222F008029A6008
:101178001A6842F001021A6007B030BD2DE9F34148
:10118800056906460F467DBBD0F80080C8F30A0300
:1011980023B30023D6F80080019324F04FFE0428DF
:1011A80019D1224C236943F001032361BBB2A8F88B
:1011B800003024F043FE04282ED108F102030193E5
:1011C800019B3F0C1F8024F039FE2369042823F07B
:1011D8000103236125D06FF0010505E024F02EFE00
:1011E800042805D04FF0FF35284602B0BDE8F0814D
:1011F8000E4C236943F002032361C4F81480236969
:1012080043F04003236124F019FE2369042823F0E6
:1012180002032361BDD0E5E7236923F001032361BD
:10122800D9E7336804333360DEE700BF00200240AB
:10123800F8B504460D468E180027B54201D120693D
:10124800F8BDE368591CE160234415F8012B1A72B4
:101258000429F2D1A1682046FFF790FFC4E9037082
:10126800EBE700BF38B52C2200212BF0DCFF03464A
:10127800642140F2DC5240F2022019745A82132190
:10128800202240F21A4540F26C74188399760E2099
:1012980002211A7701229D82DC8240F2753540F6E0
:1012A800430483F8220083F82A109A7383F82920CC
:1012B800DD831C8419460248BDE8384028F05ABE30
:1012C800101B03087FB5002500F10C060C460D80A5
:1012D8004D808D800DF107020621304622F0FAF884
:1012E80010B9002004B070BD9DF807305B07F8D531
:1012F80002AA2946304622F039F90028F1D09DF893
:1013080009209DF8083043EA022323809DF80B202A
:101318009DF80A3043EA022363809DF80D209DF86A
:101328000C3043EA0223A380DCE700BF1B4B1B6899
:1013380070B56BBB1A4B1D784DB31A4A1A4B11780E
:101348004FF4987202FB053540F20D3610E05868EC
:101358001C894460046844F001040460A2F84860F1
:10136800D06803F5987340F48070AB42D0600ED01B
:101378001A680029EBD15162B3F82C01D4682043D4
:10138800D06003F5987323F8041CAB42F0D170BD0C
:1013980011F004FC0028CDD170BD00BF3816002024
:1013A800FC4C0020C0480020004D002002280FD827
:1013B800094A0A4B0A4910B400EB40041070013086
:1013C80003EB4413C0B25DF8044B0B601CF028BF5C
:1013D8000130C0B21CF024BFDD270020FC2700200C
:1013E800EC27002038B5444B9A89D989D87891429E
:1013F80024BF00229A81598A1A8A914224BF002266
:101408001A8201280DD93D4A3D4D92F85C100124FD
:1014180000220A292C709C709A7134D1DFED397A38
:1014280015E09A7922B199780429B8BF04219970F6
:10143800324991F85C100A2954D00C2925D1DFEDE6
:10144800327A9FED327A002A18BFF0EE477A304C94
:10145800A278062A97BF2F49DFED2C6A01EB82019B
:10146800D1ED086A2179B9B1013A032A0AD8B7EE51
:10147800000A80EE260A2BF0E9FF2388984228BF4D
:101488001846208038BD0C2903D0012830D90A29F4
:101498002BD0DFED217AD4E79B78194907EE103A73
:1014A8000A78B8EEC77A67EE277A07EE102AB8EE00
:1014B800C77A27EE277AF4EEC76AF1EE10FAE1DD73
:1014C80086EEA77AFDEEC77A17EE903A102BA8BFE2
:1014D8001023012BB8BF0123DBB29A4238BF1A464A
:1014E8000A7038BDDFED0D7AABE7DFED067AA8E7C5
:1014F800DFED0B7AA5E700BFE03F00201040002099
:10150800526400200F506E3A0AD7A3396F1203387D
:101518009848002020EA02086F12833A5304E938F9
:101528006F12033970B53B4B3B481A785B783B49DF
:101538003B4C3C4D02EB420203EBC30301EB43037C
:1015480000EB42122B6022600BF042FD002130229A
:1015580035482BF068FE20680BF05CF9334B2568A2
:1015680003F1780102E006338B4250D01A78002A42
:10157800F9D19C78D878844202D358790028F2D0DF
:101588002B492C4B0E792C4CC820642111FB0601E9
:1015980059600021294883F82010C3E90211C3E9E2
:1015A8000411C3E9061183F82110254B2549196058
:1015B800227005601AF08EFE234B9FED245A9A8BF9
:1015C8009B7F9FED236A06EE902AF8EEE66A214A91
:1015D800C5EE265A1188507907EE101A1E490B607D
:1015E80053881E491279C1ED005A07EE903AB8EEB9
:1015F800C77AF8EEE77A1A4B27EE067A67EE867A0C
:1016080018725A7283ED017AC3ED007A70BD012217
:10161800B6E700BFDD270020FC2700204629002070
:10162800EC27002028160020183B00205A660020CE
:101638000833002048330020500000204C3B002095
:10164800343A0020EA2B00200C140020C0C9FB48C3
:1016580017B7D1386C3A0020901600209416002055
:10166800181600202DE9F84FDFF818827B487C4CCB
:101678007C4E7D4FDFF81092DFF810A24FF48C7289
:1016880000212BF0D0FD454678497948DFF800C2A3
:10169800DFF800E208F5EE7222E0B3F1804F00F0C7
:1016A800B880A34200F0BC80B34200F0BB80BB42CC
:1016B80000F0C680634500F0C580734500F0C48023
:1016C8004B4500F0C480534500F0C480DFF8C8B132
:1016D8005B4508BF4FF4802307D01C35AA420CD0C5
:1016E8002B688B42D9D14FF40063D0F818B01C3561
:1016F80043EA0B03AA428361F2D15E4F5E4E4FF07C
:10170800030A4FF0020998F80630002B7AD098F8AF
:1017180004301C09013C052C03F00F0372D837F87C
:10172800140040FA03F2D2076CD54FF0010B0BFA04
:1017380003F3013B18402BF0CDFA504B1B5D1844C6
:1017480016EBC0045ED056F830304D4898F80810B3
:1017580003F13842920A825C02F01F005209022A01
:101768000BFA00FB66D0032A5ED0012A04D1404858
:1017780042694BEA02024261B4F804C0BCFA8CF236
:10178800C2F11F0292B2D00803EB800002F00702F8
:10179800046A92004FF00F0E0EFA02FE24EA0E04BD
:1017A8000462046A01FA02F2224302624FF0010E57
:1017B80000220EFA02F434EA0C0120D15000D3F8CA
:1017C80008B00AFA00F1C9430BEA010BC3F808B0E4
:1017D800D3F808B0C3F808B0B3F804B02BEA04048F
:1017E8009C809C88A4B29C801C680C401C601C686F
:1017F80009FA00F020431860D8680140D960013226
:10180800102AD6D108F11C0845457FF47CAFBDE805
:10181800F88F0123D0F81CB043EA0B03C3615CE7DF
:101828000223F7E70423F5E71148C2694BEA0202ED
:10183800C261A1E70E4882694BEA020282619BE716
:101848001023E7E72023E5E74FF400534DE74FF473
:1018580080334AE74FF4003347E700BF983E002043
:10186800000400400008004000100040002C014027
:1018780000100240ACFE0208C44B002094FC020891
:1018880060FC02089CFC0208004001400044014042
:1018980000140040003401400048014000B970477E
:1018A80003682DE9F04F03F138449C4EA40A012542
:1018B800345D04F01F066409022C05FA06F500F0F1
:1018C8007481032C00F06C81012C00F02281808847
:1018D800B0FA80F4C4F11F04A4B2E50803EB85054F
:1018E80004F007042E6AA4000F27A74026EA07067B
:1018F8002E622E6A01F00307A2407C1E3243012C9F
:10190800C1F3810EC1F300182A62C1F3411140F2FC
:101918000981C6070BD51A6822F003021A601A68F3
:101928003A431A60DA6822F003020A43DA6085074C
:101938000DD51A6822F00C021A601A6842EA87026A
:101948001A60DA6822F00C0242EA8102DA6044077F
:101958000DD51A6822F030021A601A6842EA071296
:101968001A60DA6822F0300242EA0112DA600207ED
:101978000DD51A6822F0C0021A601A6842EA871266
:101988001A60DA6822F0C00242EA8112DA60C606FA
:101998000DD51A6822F440721A601A6842EA0722C2
:1019A8001A60DA6822F4407242EA0122DA60850697
:1019B8000DD51A6822F440621A601A6842EA872232
:1019C8001A60DA6822F4406242EA8122DA60440648
:1019D8000DD51A6822F440521A601A6842EA073292
:1019E8001A60DA6822F4405242EA0132DA600206EA
:1019F8000DD51A6822F440421A601A6842EA873202
:101A08001A60DA6822F4404242EA8132DA60C60596
:101A18000DD51A6822F440321A601A6842EA074261
:101A28001A60DA6822F4403242EA0142DA60850537
:101A38000DD51A6822F440221A601A6842EA8742D1
:101A48001A60DA6822F4402242EA8142DA604405E8
:101A58000DD51A6822F440121A601A6842EA075231
:101A68001A60DA6822F4401242EA0152DA6002058A
:101A78000DD51A6822F440021A601A6842EA8752A1
:101A88001A60DA6822F4400242EA8152DA60C60437
:101A98000DD51A6822F040721A601A6842EA076285
:101AA8001A60DA6822F0407242EA0162DA6085045C
:101AB8000DD51A6822F040621A601A6842EA8762F5
:101AC8001A60DA6822F0406242EA8162DA6044040D
:101AD8000DD51A6822F040521A601A6842EA077255
:101AE8001A60DA6822F0405242EA0172DA600204AF
:101AF8000DD51A6822F040421A601A6842EA8777C0
:101B08001F60DA6822F0404242EA8171D960BDE87C
:101B1800F08F034C666935436561D8E660FC0208BE
:101B28000010024000224FF0010C4FF003090CFA9C
:101B380002F636EA00042ED15400D3F808A009FAB8
:101B480004F5ED4305EA0A0AC3F808A0D3F808B07B
:101B58000EFA04FA4AEA0B0AC3F808A0B3F804A07C
:101B68002AEA06069E80B3F804A008FA02F646EAB6
:101B78000A06B6B29E801E682E401E60D3F800A0EA
:101B880007FA04F646EA0A061E60DE6801FA04F45B
:101B980035402C43DC600132102AC8D1BDE8F08FF3
:101BA800044CE6693543E56191E6024CA669354384
:101BB800A5618CE60010024003682DE9F04F03F19F
:101BC8003845AA4EAD0A0124755D05F01F066D095A
:101BD800022D04FA06F400F0B581032D00F0AD8162
:101BE800012D00F067818088B0FA80F4C4F11F04E9
:101BF800A4B2E50803EB850504F007042E6AA400E7
:101C08000F27A74026EA07062E622E6A01F003076F
:101C180002FA04F47A1E3443012AC1F3810EC1F397
:101C280000182C62C1F3411140F24981C60700F146
:101C38003181850700F11C81440700F10581020705
:101C480000F1F080C60600F1DB80850600F1C68051
:101C5800440600F1B180020600F19C80C60500F13F
:101C68008780850572D444055FD402054CD4C60428
:101C780039D4850426D4440413D4020401D4BDE81D
:101C8800F08F1A6822F040421A601A6842EA877791
:101C98001F60DA6822F0404242EA8171D960BDE8EB
:101CA800F08F1A6822F040521A601A6842EA0772E6
:101CB8001A60DA6822F0405242EA0172DA600204DD
:101CC800DDD5DEE71A6822F040621A601A6842EA37
:101CD80087621A60DA6822F0406242EA816244044C
:101CE800DA60CAD5DDE71A6822F040721A601A680D
:101CF80042EA07621A60DA6822F0407242EA016238
:101D08008504DA60B7D5DDE71A6822F440021A6064
:101D18001A6842EA87521A60DA6822F4400242EAF4
:101D28008152C604DA60A4D5DDE71A6822F44012AD
:101D38001A601A6842EA07521A60DA6822F44012F6
:101D480042EA0152DA60020591D5DDE71A6822F409
:101D580040221A601A6842EA87421A60DA6822F456
:101D6800402242EA81424405DA607FF57EAFDCE733
:101D78001A6822F440321A601A6842EA07421A6066
:101D8800DA6822F4403242EA01428505DA607FF5DA
:101D98006AAFDBE71A6822F440421A601A6842EA1E
:101DA80087321A60DA6822F4404242EA8132C60574
:101DB800DA607FF556AFDBE71A6822F440521A6002
:101DC8001A6842EA07321A60DA6822F4405242EA94
:101DD8000132DA6002067FF541AFDBE71A6822F4C8
:101DE80040621A601A6842EA87221A60DA6822F4A6
:101DF800406242EA81224406DA607FF52CAFDBE7D5
:101E08001A6822F440721A601A6842EA07221A60B5
:101E1800DA6822F4407242EA01228506DA607FF528
:101E280017AFDBE71A6822F0C0021A601A6842EAA4
:101E380087121A60DA6822F0C00242EA8112C606E6
:101E4800DA607FF502AFDBE71A6822F030021A6029
:101E58001A6842EA07121A60DA6822F0300242EA87
:101E68000112DA6002077FF5EDAEDBE760FC0208DD
:101E78001A6822F00C021A601A6842EA87021A608D
:101E8800DA6822F00C0242EA81024407DA607FF540
:101E9800D6AED9E71A6822F003021A601A683A43E4
:101EA8001A60DA6822F003020A438507DA607FF5D0
:101EB800C3AEDDE7264D6E6934436C6193E60022BC
:101EC8004FF0010C4FF003090CFA02F636EA000451
:101ED8002ED15400D3F808A009FA04F5ED4305EA19
:101EE8000A0AC3F808A0D3F808B00EFA04FA4AEAB6
:101EF8000B0AC3F808A0B3F804A02AEA06069E80D5
:101F0800B3F804A008FA02F646EA0A06B6B29E80BA
:101F18001E682E401E60D3F800A007FA04F646EAB1
:101F28000A061E60DE6801FA04F435402C43DC60C2
:101F38000132102AC8D1BDE8F08F054DEE6934434F
:101F4800EC6150E6024DAE693443AC614BE600BF2C
:101F58000010024010B50409013C052C17D80E4B9F
:101F680033F8142000F00F0042FA00F313F00103D5
:101F78000FD0012303FA00F0013810402AF0AAFE1E
:101F8800064A074B125D104403EBC00010BD002049
:101F980010BD184610BD00BFACFE020894FC020834
:101FA800C44B00202DE9F8432F4D2A69EB6812EA4B
:101FB800030826D02D4E4FF00047B8FA88F327FAC9
:101FC80003F2D2431B3B2A6108EA0208042B15D806
:101FD800DFE803F0372D23190300D6F81431002B5E
:101FE80039D1EB6A1FFA83F9D6F8104134B1236866
:101FF8002046494698476468002CF8D1B8F1000F8C
:10200800DBD1BDE8F883D6F8F000696B036889B2C4
:102018009847B8F1000FD0D1F3E7D6F8F400A96BD0
:10202800036889B29847B8F1000FC6D1E9E7D6F836
:10203800F800E96B036889B29847B8F1000FBCD182
:10204800DFE7D6F8FC00296C036889B29847B8F135
:10205800000FB2D1D5E703F1FF3900231FFA89F940
:10206800C6F81431C0E700BF00480140983E002080
:102078002DE9F8432F4D2A69EB6812EA030826D0A8
:102088002D4E4FF00047B8FA88F327FA03F2D243EF
:102098001B3B2A6108EA0208042B15D8DFE803F085
:1020A800372D23190300D6F8C430002B39D1EB6A39
:1020B8001FFA83F9D6F8C04034B123682046494650
:1020C80098476468002CF8D1B8F1000FDBD1BDE85F
:1020D800F883D6F8A000696B036889B29847B8F10D
:1020E800000FD0D1F3E7D6F8A400A96B036889B232
:1020F8009847B8F1000FC6D1E9E7D6F8A800E96B10
:10210800036889B29847B8F1000FBCD1DFE7D6F869
:10211800AC00296C036889B29847B8F1000FB2D1B6
:10212800D5E703F1FF3900231FFA89F9C6F8C4304F
:10213800C0E700BF00400140983E00202DE9F84369
:102148002E4D2A69EB6812EA030826D02C4E4FF070
:102158000047B8FA88F327FA03F2D2431B3B2A61F7
:1021680008EA0208042B15D8DFE803F0352B2219FA
:102178000300D6F89C30002B37D1EB6A1FFA83F99D
:10218800D6F8984034B12368204649469847646891
:10219800002CF8D1B8F1000FDBD1BDE8F883B06F9F
:1021A800696B036889B29847B8F1000FD1D1F4E799
:1021B800F06FA96B036889B29847B8F1000FC8D1CE
:1021C800EBE7D6F88000E96B036889B29847B8F165
:1021D800000FBED1E1E7D6F88400296C036889B204
:1021E8009847B8F1000FB4D1D7E703F1FF390023BE
:1021F8001FFA89F9C6F89C30C2E700BF0008004002
:10220800983E00202DE9F8432B4D2A69EB6812EA25
:10221800030824D0294E4FF00047B8FA88F327FA6C
:1022280003F2D2431B3B2A6108EA0208042B13D8A5
:10223800DFE803F0322920170300736F002B34D135
:10224800EB6A1FFA83F9346F34B123682046494694
:1022580098476468002CF8D1B8F1000FDDD1BDE8CB
:10226800F883306D696B036889B29847B8F1000F3D
:10227800D3D1F4E7706DA96B036889B29847B8F1B8
:10228800000FCAD1EBE7B06DE96B036889B29847D4
:10229800B8F1000FC1D1E2E7F06D296C036889B28B
:1022A8009847B8F1000FB8D1D9E703F1FF390023F7
:1022B8001FFA89F97367C6E700040040983E0020BA
:1022C8002DE9F8434FF080452A69EB6812EA0308C4
:1022D80024D0294E4FF00047B8FA88F327FA03F2C2
:1022E800D2431B3B2A6108EA0208042B13D8DFE813
:1022F80003F0322920170300F36C002B34D1EB6A6A
:102308001FFA83F9B46C34B12368204649469847CC
:102318006468002CF8D1B8F1000FDDD1BDE8F8836E
:10232800B06A696B036889B29847B8F1000FD3D1D6
:10233800F4E7F06AA96B036889B29847B8F1000F0F
:10234800CAD1EBE7306BE96B036889B29847B8F1FB
:10235800000FC1D1E2E7706B296C036889B2984716
:10236800B8F1000FB8D1D9E703F1FF3900231FFAFC
:1023780089F9F364C6E700BF983E00202DE9F843C9
:102388005A4D2A69EB6812EA030825D0584E4FF0D7
:102398000047B8FA88F327FA03F2D2431B3B2A61B5
:1023A80008EA0208042B14D8DFE803F04A41382F62
:1023B8000300736A002B40F09280EB6A1FFA83F9DE
:1023C800346A34B123682046494698476468002C2B
:1023D800F8D1B8F1000FDCD1464D2A69EB6812EA52
:1023E80003084AD0424E4FF00047B8FA88F327FA5C
:1023F80003F2D2431B3B2A6108EA0208042B39D8AE
:10240800DFE803F05B51473D27003068696B0368DC
:1024180089B29847B8F1000FBBD1DDE77068A96BA6
:10242800036889B29847B8F1000FB2D1D4E7B06811
:10243800E96B036889B29847B8F1000FA9D1CBE7D7
:10244800F068296C036889B29847B8F1000FA0D1E9
:10245800C2E7D6F8EC30002B39D1EB6A1FFA83F9C2
:10246800D6F8E84034B1236820464946984764685E
:10247800002CF8D1B8F1000FB7D1BDE8F883D6F831
:10248800C800696B036889B29847B8F1000FACD1EE
:10249800F3E7D6F8CC00A96B036889B29847B8F17E
:1024A800000FA2D1E9E7D6F8D000E96B036889B23A
:1024B8009847B8F1000F98D1DFE7D6F8D400296C17
:1024C800036889B29847B8F1000F8ED1D5E703F1B8
:1024D800FF3900231FFA89F9C6F8EC30C0E703F189
:1024E800FF3900231FFA89F9736269E7002C01405C
:1024F800983E0020004401402DE9F8432B4D2A69FD
:10250800EB6812EA030824D0294E4FF00047B8FAC6
:1025180088F327FA03F2D2431B3B2A6108EA020830
:10252800042B13D8DFE803F0322920170300736A5D
:10253800002B34D1EB6A1FFA83F9346A34B123686B
:102548002046494698476468002CF8D1B8F1000F36
:10255800DDD1BDE8F8833068696B036889B29847B4
:10256800B8F1000FD3D1F4E77068A96B036889B29A
:102578009847B8F1000FCAD1EBE7B068E96B036878
:1025880089B29847B8F1000FC1D1E2E7F068296C29
:10259800036889B29847B8F1000FB8D1D9E703F1B9
:1025A800FF3900231FFA89F97362C6E7002C01403E
:1025B800983E0020F0B506684D4CB30AA34200F0DF
:1025C80094800AD94B4CA34200F089800134A3427D
:1025D80066D0023CA34267D0F0BD4A3CA34200F05B
:1025E80081800134A34205D0B3F5801FF4D1482778
:1025F800012501E09827032590F805C002232CFA4D
:1026080003F084468340A800002955D0D6F80CE092
:1026180044190CEB440C9BB2374C43EA0E030CF103
:10262800040E44F82C1044F82E20F360E319EFF35D
:102638001181502282F31288421904EBC202D2F8A7
:1026480010C0BCF1000F03D044F807C0136904336D
:10265800421904EBC202576917B11F60536904336A
:10266800421904EBC202976917B11F6093690433DA
:10267800421904EBC202D76917B11F60D36904334A
:102688000022C9B21A6081F31188284404EBC004FF
:10269800236A63B9F3684FF6FE721340F360F0BD26
:1026A8004FF488770625A7E7C0270425A4E7F36831
:1026B80043F00103F360F0BDD6F80CE00E4CDB43A9
:1026C8009BB203EA0E0300EB050E0CEB4E0CF36015
:1026D8000CF1040344F82C1044F82320A6E7E8275B
:1026E800052589E77027022586E72027002583E747
:1026F8004B00100051001000983E002030B50368D0
:102708005A4D18885A4CB4FBF2F20139013AAB42DF
:1027180094B283B089B282B20DD0564883420AD0AF
:10272800B3F1804F07D0A0F59830834203D000F56D
:102738008060834202D122F0700292B24E488342F6
:102748006AD000F58060834241D022F4407200F5DF
:102758008C3092B283421A80D9621C8565D10022DE
:102768001A8601225A611A88404942F001028B42B6
:102778001A806AD0B3F1804F69D0404A934268D03A
:1027880002F58062934266D002F50062934264D0FB
:1027980002F58062934262D002F59032934260D093
:1027A80002F5406293425ED002F58062934217D0F0
:1027B80002F58062934208BF092212D002A84FF0A6
:1027C800012340F8043D20F02DFB03B030BD01206B
:1027D8001A80D9621C8558611A8802431A80C9E791
:1027E8000822274B03EBC20301A893F841408DF858
:1027F8000440012300228DF805308DF807308DF84C
:10280800062020F00FFB1B2CDFD11E4B019301A8E3
:1028180020F008FB03B030BD01201A80D9621C8566
:1028280058611A8802431A80A7E7124A934296D041
:1028380002F54062934292D002F5806293428ED0B4
:1028480002F5806293428AD08BE70022C9E7012211
:10285800C7E70222C5E70322C3E70422C1E705222E
:10286800BFE70622BDE70722BBE700BF002C0140F7
:1028780000A24A0400340140001000400004004057
:1028880020EA020819010001204B98422DD0B0F12E
:10289800804F2CD0A3F5943398422AD003F5806357
:1028A800984228D003F50063984226D003F5806348
:1028B800984224D003F59033984222D003F5406320
:1028C800984220D003F58063984207D003F58063CF
:1028D800984208BF092202D00020704708220C4BFA
:1028E80003EBC20393F8400070470022F7E7012288
:1028F800F5E70222F3E70322F1E70422EFE70522D6
:10290800EDE70622EBE70722E9E700BF002C0140CC
:1029180020EA0208C0B110B40C4C10212246002352
:1029280003E00133112B0BD01179884202F11C020C
:10293800F7D1C3EBC30304EB83005DF8044B704786
:1029480000205DF8044B7047704700BF9CFC0208EC
:102958002DE9F04F013085B0C3B20393994C9A4FDB
:10296800DFF874A2994D9A4E0A23029320F01CFCBA
:102978004FF4FA73DFF86CE201934FF01008DAF8BD
:102988000430C3F30803002B40F0D980EFF3118320
:10299800002B40F0D4802068AA6823689842FAD1B6
:1029A80033689A42F7D8D7F800C04FF47A7101FB20
:1029B8000CF39B1AB3FBFCF301FB00304FF47A7C59
:1029C8004FF00109DAF80430C3F30803002B40F094
:1029D8009880EFF31183002B40F093802368A96857
:1029E80022689342FAD132689142F7D83A680CFBD0
:1029F80002FBABEB0101B1FBF2F10CFB03131B1A59
:102A0800B3F57A7FDED3019B013B0193B7D10398DD
:102A180020F026FA4FF47A73DFF8C8E101934FF0FB
:102A28001008DAF80430C3F30803002B40F0A8803C
:102A3800EFF31183002B40F0A3802068AA68236875
:102A48009842FAD133689A42F7D8D7F800C04FF4C1
:102A58007A7101FB0CF39B1AB3FBFCF301FB00300A
:102A68004FF47A7C4FF00109DAF80430C3F3080315
:102A78004BBBEFF3118333BB2368A96822689342E9
:102A8800FAD132689142F7D83A680CFB02FBABEBFB
:102A98000101B1FBF2F10CFB03131B1AB3F57A7FAA
:102AA800E2D3019B013B0193BBD1029B013B029303
:102AB8007FF45CAF4749484B4848494A0860DA60A8
:102AC80005B0BDE8F08FEFF3118188F31288D5F8CF
:102AD80008B02B68DB0344BFCEF80090D5F808B0E7
:102AE8002368DEF80020C9B281F3118839681344DD
:102AF8000CFB01F2A2EB0B02B2FBF1F20CFB03237D
:102B0800CBE7EFF3118188F31288D5F808B02B686A
:102B1800DB0344BFCEF80090D5F808B02368DEF890
:102B28000020C9B281F31188396813440CFB01F203
:102B3800A2EB0B02B2FBF1F20CFB03235FE7EFF30E
:102B4800118388F31288D5F808C02A68D20304D5FF
:102B58000122CEF80020D5F808C02068DEF80090E1
:102B6800DBB283F3118839684FF47A72484402FB68
:102B780001F3A3EB0C03B3FBF1F302FB00301DE7F9
:102B8800EFF3118388F31288D5F808C02A68D203B6
:102B980004D50122CEF80020D5F808C02068DEF858
:102BA8000090DBB283F3118839684FF47A72484495
:102BB80002FB01F3A3EB0C03B3FBF1F302FB0030C0
:102BC8004EE700BF183C00201C3C002010E000E04D
:102BD800203C0020FC9F002000ED00E0EFBEADDEB1
:102BE8000400FA05143C00202DE9F04F85B0CDE92A
:102BF80002109B4DDFF878A2029B013B0293013340
:102C080000F02A8120F0D0FA964C974FDFF864E262
:102C1800964E4FF4FA7301934FF01008DEF8043023
:102C2800C3F30803002B40F0F680EFF31183002B69
:102C380040F0F1802068AA6823689842FAD1336886
:102C48009A42F7D8D7F800C04FF47A7101FB0CF319
:102C58009B1AB3FBFCF301FB00304FF47A7C4FF076
:102C68000109DEF80430C3F30803002B40F0B580F7
:102C7800EFF31183002B40F0B0802368A968226825
:102C88009342FAD132689142F7D83A680CFB02FBBA
:102C9800ABEB0101B1FBF2F10CFB03131B1AB3F50B
:102CA8007A7FDED3019B013B0193B7D1039B6F4E23
:102CB800581CC0B220F0D4F8DFF8B8E14FF47A73AA
:102CC8000193DEF80430C3F308034FF01008002B1B
:102CD80044D1EFF31183002B40D12068AA68236800
:102CE8009842FAD133689A42F7D8D7F800C04FF41F
:102CF8007A7101FB0CF39B1AB3FBFCF301FB003068
:102D08004FF47A7C4FF00109DEF80430C3F308036E
:102D1800002B44D1EFF31183002B40D12368A9681D
:102D280022689342FAD132689142F7D83A680CFB8C
:102D380002FBABEB0101B1FBF2F10CFB03131B1A15
:102D4800B3F57A7FE0D3019B013B01933FF454AF85
:102D5800DEF80430C3F30803002BBAD0EFF3118375
:102D680088F31288D5F808C02A68D20304D501224E
:102D7800CAF80020D5F808C02068DAF80090DBB25D
:102D880083F3118839684FF47A72484402FB01F3DF
:102D9800A3EB0C03B3FBF1F302FB0030B0E7EFF356
:102DA800118188F31288D5F808B02B68DB0344BF7B
:102DB800CAF80090D5F808B02368DAF80020C9B23C
:102DC80081F31188396813440CFB01F2A2EB0B0262
:102DD800B2FBF1F20CFB0323B1E7EFF3118188F3A7
:102DE8001288D5F808B02B68DB0344BFCAF80090F6
:102DF800D5F808B02368DAF80020C9B281F3118841
:102E0800396813440CFB01F2A2EB0B02B2FBF1F29E
:102E18000CFB032342E7EFF3118388F31288D5F8FC
:102E280008C02A68D20304D50122CAF80020D5F8C0
:102E380008C02068DAF80090DBB283F3118839689B
:102E48004FF47A72484402FB01F3A3EB0C03B3FB83
:102E5800F1F302FB003000E705B0BDE8F08F00BFDA
:102E680010E000E0183C00201C3C0020203C002022
:102E7800143C002000ED00E0224B5B68C3F308031C
:102E880030B4D3B9EFF31183BBB91F4A1F4D2048A3
:102E98001368846811688B42FAD129688C42F7D884
:102EA8001C4A11684FF47A7202FB01F0001B30BC17
:102EB800B0FBF1F002FB03007047EFF3118210231F
:102EC80083F3128803F1E023D2B29C68196811F4E5
:102ED800803F11491EBF012008609C680A4B186892
:102EE8000B6882F311880B4A11684FF47A72034415
:102EF80002FB01F0001B30BCB0FBF1F002FB030049
:102F0800704700BF00ED00E0183C0020203C002086
:102F180010E000E01C3C0020143C00202DE9F84F94
:102F28008046274C274DDFF8A490274EFFF7A4FFD3
:102F3800DFF89CE0DFF89CC04FF0100A4FF47A7776
:102F4800DCF80430C3F30803CBB9EFF31183B3B94A
:102F58002368A96822689342FAD132689142F7D867
:102F6800DEF8002007FB02FBABEB0101B1FBF2F13D
:102F780007FB03131B1A4345E2D3BDE8F88FEFF3B1
:102F880011818AF31288D5F808B02B68DB0304D5C1
:102F98000123C9F80030D5F808B02368D9F8002013
:102FA800C9B281F31188DEF80010134407FB01F25F
:102FB800A2EB0B02B2FBF1F207FB0323DAE700BF37
:102FC800183C002010E000E0203C0020143C0020C9
:102FD8001C3C002000ED00E02DE9F04FDFF834C183
:102FE800494CDFF834E1DFF83481484E82464848DE
:102FF8001AF1FF3AC0F08680DCF80430C3F3080306
:10300800002B5ED1EFF31183002B5AD10568A2681B
:1030180003689D42FAD133689A42F7D8DEF8007007
:103028004FF47A7101FB07F39B1AB3FBF7F301FB2B
:103038000535DCF80430C3F308034FF010094FF4EA
:103048007A77F3B9EFF31183DBB90368A1680268F3
:103058009342FAD132689142F7D8DEF8002007FB94
:1030680002FBABEB0101B1FBF2F107FB03135B1BA6
:10307800B3F57A7FBCD2DCF80430C3F30803002B25
:10308800E0D0EFF3118189F31288D4F808B02368EF
:10309800DB0304D50123C8F80030D4F808B003686E
:1030A800D8F80020C9B281F31188DEF80010134463
:1030B80007FB01F2A2EB0B02B2FBF1F207FB0323C1
:1030C800D5E7EFF31183102282F31288A1682268F2
:1030D800D20303D50122C8F80020A168D0F80090D7
:1030E800D8F80050DBB283F31188DEF800704FF493
:1030F8007A724D4402FB07F35B1AB3FBF7F302FB4A
:10310800053596E7BDE8F08F10E000E0203C002090
:10311800183C002000ED00E01C3C0020143C00207E
:1031280030B4EFF31183102282F31288084809495A
:103138000268094D094C013202608A682A6000223F
:103148002260DBB20A6883F3118830BC704700BF85
:10315800183C002010E000E0203C0020143C002037
:103168001D4B70B59C68636DA26BDD69CAB1E36BDA
:1031780033B12B0700D470BD636D08221A6270BD8D
:103188002A06F6D5D4E909028242616D11D0501C95
:10319800A669A062B25C26690A85B042E9D3A36237
:1031A800E7E7A906E3D5E26A42B1988C216B90471C
:1031B800DDE70B6823F080030B60DAE7E1699B8C9D
:1031C8006069DBB24E1CE6614354E169E3689942E9
:1031D80028BFE261CBE700BFBC2500201D4B70B5BE
:1031E8005C68636DA26BDD69CAB1E36B33B12B0711
:1031F80000D470BD636D08221A6270BD2A06F6D528
:10320800D4E909028242616D11D0501CA669A062FE
:10321800B25C26690A85B042E9D3A362E7E7A9064A
:10322800E3D5E26A42B1988C216B9047DDE70B68E1
:1032380023F080030B60DAE7E1699B8C6069DBB2FD
:103248004E1CE6614354E169E368994228BFE26194
:10325800CBE700BFBC2500201D4B70B51C68636D13
:10326800A26BDD69CAB1E36B33B12B0700D470BD23
:10327800636D08221A6270BD2A06F6D5D4E90902E0
:103288008242616D11D0501CA669A062B25C2669A9
:103298000A85B042E9D3A362E7E7A906E3D5E26A63
:1032A80042B1988C216B9047DDE70B6823F08003CF
:1032B8000B60DAE7E1699B8C6069DBB24E1CE66162
:1032C8004354E169E368994228BFE261CBE700BF54
:1032D800BC2500200368DB6A03B11847704700BFAC
:1032E80003689B6A03B11847704700BF03682DE95C
:1032F800F0415D6A1DB12B46BDE8F0411847002A30
:10330800174611DD04460E460F4400E023689B680B
:10331800204698470028F9D0236816F8011B1B6837
:1033280020469847BE42F1D1BDE8F08103685B6949
:10333800184700BF0368DB68184700BF03689B682D
:10334800184700BF03685B68184700BF03681B681D
:10335800184700BF014B186AF8E700BF0C1400209B
:1033680038B50C46097849B1054601342B6828461A
:103378001B68984714F8011B0029F7D138BD00BF16
:10338800054B53F8203033B11A689B88918A0B4259
:1033980018BF1B0493617047E43B00202DE9F04FF0
:1033A8004A484B4B4B4C4FF090414FF0010A4FF0BD
:1033B80002094FF004084FF0080E4FF0100C2027B8
:1033C8004026802530F8022B12F0010F03D0196037
:1033D800A3F804A0083312F0020F03D01960A3F871
:1033E8000490083312F0040F03D01960A3F8048086
:1033F800083312F0080F03D01960A3F804E008336B
:1034080012F0100F03D01960A3F804C0083312F0AB
:10341800200F02D019609F80083312F0400F02D0AD
:1034280019609E80083312F0800F02D019609D80C9
:10343800083312F4807F05D04FF4807B1960A3F81D
:1034480004B0083312F4007F05D04FF4007B1960F4
:10345800A3F804B0083312F4806F05D04FF4806BE2
:103468001960A3F804B0083312F4006F05D04FF4C4
:10347800006B1960A3F804B0083312F4805F05D01C
:103488004FF4805B1960A3F804B0083312F4005FAE
:1034980005D04FF4005B1960A3F804B0083312F4A8
:1034A800804F05D04FF4804B1960A3F804B008335F
:1034B800D20B04D04FF4004219609A80083301F50A
:1034C8008061A1427FF47EAFBDE8F08FACFE0208B8
:1034D800C44B00200018004800B97047036803F186
:1034E80038422DE9F04F920AB24DAA5C02F01F054E
:1034F80052090124022A04FA05F400F05F81032A24
:1035080000F05381012A00F00D8101F003077A1EB3
:10351800012AC1F3810EC1F300188488C1F3411157
:1035280040F20581E6070BD51A6822F003021A60FB
:103538001A683A431A60DA6822F003020A43DA602A
:10354800A5070DD51A6822F00C021A601A6842EA1B
:1035580087021A60DA6822F00C0242EA8102DA6015
:1035680060070DD51A6822F030021A601A6842EA1C
:1035780007121A60DA6822F0300242EA0112DA60B1
:1035880022070DD51A6822F0C0021A601A6842EAAA
:1035980087121A60DA6822F0C00242EA8112DA6001
:1035A800E6060DD51A6822F440721A601A6842EAD3
:1035B80007221A60DA6822F4407242EA0122DA60CD
:1035C800A5060DD51A6822F440621A601A6842EA04
:1035D80087221A60DA6822F4406242EA8122DA60BD
:1035E80060060DD51A6822F440521A601A6842EA39
:1035F80007321A60DA6822F4405242EA0132DA608D
:1036080022060DD51A6822F440421A601A6842EA66
:1036180087321A60DA6822F4404242EA8132DA607C
:10362800E6050DD51A6822F440321A601A6842EA93
:1036380007421A60DA6822F4403242EA0142DA604C
:10364800A5050DD51A6822F440221A601A6842EAC4
:1036580087421A60DA6822F4402242EA8142DA603C
:1036680060050DD51A6822F440121A601A6842EAF9
:1036780007521A60DA6822F4401242EA0152DA600C
:1036880022050DD51A6822F440021A601A6842EA27
:1036980087521A60DA6822F4400242EA8152DA60FC
:1036A800E6040DD51A6822F040721A601A6842EAD8
:1036B80007621A60DA6822F0407242EA0162DA6050
:1036C800A5040DD51A6822F040621A601A6842EA09
:1036D80087621A60DA6822F0406242EA8162DA6040
:1036E80060040DD51A6822F040521A601A6842EA3E
:1036F80007721A60DA6822F0405242EA0172DA6010
:1037080022040DD51A6822F040421A601A6842EA6B
:1037180087771F60DA6822F0404242EA8171D960F7
:10372800BDE8F08F244A55692C435461EDE6002228
:103738004FF0010C4FF003090CFA02F636EA0400C8
:103748002ED15000D3F808A009FA00F5ED430AEA93
:10375800050AC3F808A0D3F808B00EFA00FA4AEA36
:103768000B0AC3F808A0B3F804A02AEA06069E804C
:10377800B3F804A008FA02F646EA0A06B6B29E8032
:103788001E682E401E60D3F800A007FA00F646EA2D
:103798000A061E60DE6801FA00F035402843D8604A
:1037A8000132102AC8D1BDE8F08F034AD5692C43ED
:1037B800D461AAE660FC020800100240024A95693A
:1037C8002C439461A1E600BF0010024010B10368C9
:1037D80082881A85704700BF10B1036882889A6191
:1037E800704700BF18B1838811B1026893617047B0
:1037F8001B04FAE70E4B1B8801463BB90D4B0E4ADA
:103808001B7810680BB981F00101EBE70B4B5A6983
:103818001AB11A6810B910605874704708480949F5
:10382800008891FBF0F1012011605874704700BFC7
:10383800F03B0020F23B0020F43B0020F83B002046
:10384800103C002020A1070038B5074B03EBC0054A
:103858002C796A794C40A24205D053F830002146B1
:10386800FFF7C0FF6C7138BDC03F002010B40A4B91
:103878000A4A1C7801238340234052F8200029B9C2
:10388800B3FA83F149095DF8044BABE7191C18BF7B
:1038980001215DF8044BA5E7E03B0020E43B002054
:1038A80008B501210220FFF7E1FF0C4B1B7803F05C
:1038B8000503052B0ED000210120FFF7D7FF0021BB
:1038C8000846FFF7D3FF3220FFF786FB0220FFF7F9
:1038D80057FDF8E709F0E6F8EDE700BFB825002046
:1038E80030B102688388128A1A4214BF012000206E
:1038F800704700BF2DE9F0410B4E356873691D40D4
:1039080010D0DFF828800127B5FA85F4C4F11F0428
:1039180008EB840307FA04F4586A03689847A54338
:103928007461F1D1BDE8F081000401400C1400205D
:103938002DE9F0410B4E356873691D4010D0DFF852
:1039480028800127B5FA85F4C4F11F0408EB840325
:1039580007FA04F4586A03689847A5437461F1D1DB
:10396800BDE8F081000401400C1400202DE9F0416D
:103978000B4E356873691D4010D0DFF82880012789
:10398800B5FA85F4C4F11F0408EB840307FA04F4BC
:10399800586A03689847A5437461F1D1BDE8F0817E
:1039A800000401400C1400202DE9F0410B4E35684D
:1039B80073691D4010D0DFF828800127B5FA85F417
:1039C800C4F11F0408EB840307FA04F4586A036877
:1039D8009847A5437461F1D1BDE8F0810004014026
:1039E8000C1400202DE9F0410B4E356873691D4019
:1039F80010D0DFF828800127B5FA85F4C4F11F0438
:103A080008EB840307FA04F4586A03689847A54347
:103A18007461F1D1BDE8F081000401400C1400206C
:103A28002DE9F0410B4E356873691D4010D0DFF861
:103A380028800127B5FA85F4C4F11F0408EB840334
:103A480007FA04F4586A03689847A5437461F1D1EA
:103A5800BDE8F081000401400C1400202DE9F0417C
:103A68000B4E356873691D4010D0DFF82880012798
:103A7800B5FA85F4C4F11F0408EB840307FA04F4CB
:103A8800586A03689847A5437461F1D1BDE8F0818D
:103A9800000401400C140020002800F088802DE963
:103AA800F0418488B4FA84F4C4F11F04651C82B020
:103AB80002D102B0BDE8F081E6B206F0FC0505F1DE
:103AC800804505F5803506F00306D5F808C0384F5F
:103AD8000068B6004FF00F0E0EFA06FE2CEA0E0C28
:103AE80007EB840EC0F38720CEF82410C5F808C071
:103AF800D5F80880DFF8C4E0DFF8C4C000FA06F1A2
:103B08000120A04041EA0801A960CEF80000DCF8D5
:103B18000050284EDFF8AC80C1430D40CCF800506F
:103B280035680D403560DCF80050234E0543CCF86D
:103B38000050D8F800500D40C8F800505EF8085CF6
:103B480034442940102B4EF8081C94F88C40AEF1F0
:103B5800080E21D003F1804303F58233196801432D
:103B68001960274497F864309342A2DD2644002167
:103B780096F89C308DF804309411012301A887F839
:103B880064208DF805408DF806108DF807301FF079
:103B980049F902B0BDE8F081D8F800300343C8F80D
:103BA8000030DEF800100143CEF80010D9E7704766
:103BB8000C1400200404014020EA02081404014007
:103BC80000040140080401400B490C4A8B6943F08A
:103BD800010310B58B611368094C43F480531360DB
:103BE80004F124004022002129F01DFB4FF0FF338F
:103BF8006366C4F8673010BD001002400000014041
:103C08000C14002003681B6A184700BF70B44E1CD0
:103C18000568C2728672AC69A44670BC604700BF72
:103C28002DE9F041044618460D4616461F4628F071
:103C380015FB2844A0722068E672294645693B4670
:103C480032462046AC46BDE8F0416047036810B5EF
:103C580004461B689847236820469B689847A37BBF
:103C68000133A37310BD00BF10B5036804469B68F9
:103C78009847FF2301226373227310BD38B50D46A0
:103C8800FEF768F9044640B136238371C5711EF00A
:103C98005FFD2046BDE838409EE538BD38B50D4685
:103CA800FEF758F9044648B135238371C5712021C0
:103CB800FFF712FC2046BDE838408DE538BD00BF4F
:103CC800064B984202D04FF0FF307047044A538B9E
:103CD80001339BB25383508B80B270470038004049
:103CE800B03B002038B583680446154601F07F01D3
:103CF80013B11A689B881385606840F2E93300E0C5
:103D08007BB30289013B12F0020F9BB2F8D001731A
:103D180040F2E93300E023B30289013B12F0010FBE
:103D28009BB2F8D0037B606840F2E93300E0DBB176
:103D38000289013B12F0020F9BB2F8D0057340F2E2
:103D4800E93300E083B10289013B12F0010F9BB215
:103D5800F8D0037BA36813B11A689B88936101208C
:103D680038BDFFF7ADFFDEE7FFF7AAFFF2E700BFB8
:103D7800427A4AB110B5044604F10A01D0E900308C
:103D880098470023637210BD704700BF437A5A1CDE
:103D98000344D2B242729972037A93420AD84AB162
:103DA80010B5044604F10A01D0E900309847002311
:103DB800637210BD704700BFA8B10D4B012210B44B
:103DC80002FA01F103F1750402E00333A3420BD0B8
:103DD80013F8012C8242F8D11A780A42F5D0012052
:103DE8005DF8044B7047704700205DF8044B70473E
:103DF800C5EA020830B40A4D002305F1A40401E025
:103E0800272B0AD003EB43020133A15C8142F7D18F
:103E18002A4430BC92F8A6007047002030BC704796
:103E280020EA0208024A136823EA0000106070477B
:103E3800AC670020F8B5B64A1378A3F11701022938
:103E480005D9B44911F83300002840F02581002431
:103E5800B14EB24D204636F830104B088F0803F0AB
:103E68007733CB1A07F03337CA08DB1B02F011325D
:103E78009B1A03EB231303F00F33A5FB0372D2093C
:103E8800C2EB02229A1A01F08103C90744BF013428
:103E9800E4B2012A00F1010005DD022A40F0EF80BA
:103EA800812B40F0EC800528D5D1013C022C00F292
:103EB800E68002201AF050F8002800F0E980984ABD
:103EC8005378052B00F2D780964903EBC30301EB27
:103ED800430113789448954C0160022B00F2C78087
:103EE80003EB430104EB411103EB430304EB4313DE
:103EF8008F4D9A88D888296090428E4924BF002225
:103F08009A808B78042B00F0D08033B90B88B3F5F6
:103F1800F07F84BF4FF4F0730B80874EFDF762FA91
:103F28003568864B2B40002B00F0CD80EA0700F166
:103F3800CD806B0400F1D1802F0700F1D580A80453
:103F480000F1D98029047E4E40F189800023F37363
:103F580086F8233009F02EF8002863D0737E032BEF
:103F680060D05A1E012A72D900232383A4F878301E
:103F7800A4F8D83009F01EF8002867D10023EA0415
:103F880084F84F3084F8AF3084F80F3164D56D4B26
:103F9800DA79022A08BF01224FF00A0008BFDA7155
:103FA80008F024FF002840F0DD804FF4806019F00D
:103FB800D3FF002800F035814FF48060FFF732FF0F
:103FC8004FF48040FFF72EFF4FF48030FFF72AFFB1
:103FD8005D485E4CFFF726FF4FF40010FFF722FF05
:103FE8004FF00070FFF71EFF4FF08060FFF71AFFD9
:103FF800A388002B40F08480554A1368DB0DDB054D
:104008000BB100231360936823F4007323F00203B9
:104018000BB1002393601379013B042B01D90123D1
:104028001371F8BD0023A3816382A4F86C30A4F84F
:104038007230A4F8CC30A4F8D23008F0BBFF0028C6
:1040480092D0737E5A1E012A8ED800E0737E023BFE
:10405800022B93D8EA049AD42B06A6D497E7F37BCD
:10406800002B00F0D280002386F8233072E700236B
:104078002146137038E700232A49537029E7264858
:1040880019F020FC022019F067FF00287FF417AF11
:104098008020FFF7C7FE12E701EBC3035B68002B24
:1040A8007FF4D5AE17231370D1E64FF48050FFF795
:1040B800B9FE8B8AB3F57A7F37BF4FF47A728B7863
:1040C8008B788A8221E745F0010535602148FFF7A2
:1040D800A9FE35686B047FF52FAF1F48FFF7A2FED6
:1040E80035682F077FF52BAF1C48FFF79BFE356817
:1040F800A8047FF527AF1A48FFF794FE356821E733
:104108002078FEF707FC00287FF476AFA08073E7DD
:104118009D670020B8FE02082E66002081808080FE
:10412800DD2700204629002028160020FC27002033
:10413800EC27002098480020AC67002009600002A6
:10414800845600200833002020001000D2250020CB
:10415800A067002008600002092000020160000238
:1041680009400002314F002207F1060E114694461D
:1041780001EB4100430017F810000A2807EB03057C
:1041880040D05B1B28464E1CEABB7344142E1D44CA
:104198003FF40BAF10F8062F0A2A08D00136142E68
:1041A8001D443FF402AF10F8062F0A2AF6D1012267
:1041B8009319132B15D803EB430007EB400117F8AD
:1041C80010000A2808BF013305D012E011F8064F85
:1041D8000A2C0ED10346132B02F1010203F1010050
:1041E800F4D9C5F800C0A5F804C0711C1429BFD1C2
:1041F800DBE603EB430307EB4303196829609B885D
:10420800AB80F2E752B10E46D2E742F201031D42FB
:104218003FF4A0AE002386F823309BE60E46012229
:10422800C6E74FF00060FFF7FDFDC5E65A660020BF
:104238002DE9F84F25F01EFF2B4B2C4A934250D204
:104248002B4F03F114069B464FF00108294C258893
:1042580062197DB1BA420DD2052D0BD936F8143C3E
:104268006188C3F30B0399420AD014462588621962
:10427800002DEFD156F8101C5846FCF79FFE0FE0B2
:10428800637913F0030AF0D156F8101C94F80490DF
:104298005846FCF793FE36F8141CB9EB113F11D0C1
:1042A8004FF00008114B0BF1140B9B4506F1140657
:1042B800CCD3FFF7BFFDFDF735F925F07BFE40466F
:1042C800BDE8F88F36F8123C56F8100CAA1FC3F355
:1042D8000B039A4204F10601A8BF1A4628F07FFF93
:1042E800E0E74FF00108E4E768560308B45A03080A
:1042F8000000040802F0030870B502221349144CA8
:10430800144E4FF6FF70FCF735F922884AB1A5180C
:10431800B54218D2052A16D92146FCF72BF92C46A6
:10432800F3E721460222FCF725F90222A118FCF73F
:1043380021F9094BE41A094B1C8041F60F53C31AA3
:104348005842584170BD0020FCE700BF00F0030848
:1043580002F0030800000408FAEF0308666400206E
:104368002DE9F04F8DB0FFF765FDDFF87891584FD4
:10437800DFF8748125F07EFE564A574BB2F81C21AF
:10438800ADF80620A3EB090300934FF0030A0026BB
:10439800CDE90866CDE90A66009BCDF81890079329
:1043A800D8F810301B0606D54C4BC8F8043003F17A
:1043B8008833C8F8043001238DF82C303423C8F82A
:1043C8000C300222BDF80630ADF8083002A906A864
:1043D800FCF72EFF022202A94FF6FF70FCF7CAF87D
:1043E8003F4BBB42834629D21C46658823888DF8FB
:1043F8001560C5F30B05C3F30B00A91D1B0B0622A3
:10440800ADF81010ADF8120004A906A88DF8143004
:10441800FCF70EFF5846062204A9FCF7ABF86168C2
:1044280083462A4606A8FCF703FF616858462A46D1
:10443800FCF7A0F81434BC428346D6D3022203A961
:1044480006A8ADF80C60FCF7F3FE022203A9584653
:10445800FCF790F840BAC343022204A906A8ADF8B5
:104468001030FCF7E5FE099820BB0A989DF82C301F
:104478005BB990B1BAF1010A8AD10520FEF768FA52
:1044880025F098FD0DB0BDE8F08FD8F8103043F056
:104498008003C8F810300028ECD199F80030AA2B16
:1044A800EBD199F80130BE2BE7D1FFF725FF0028A3
:1044B800E6D1E2E708ABC0F104020021184428F075
:1044C800B2FE089906A8FCF759FECDE90960CDE7C8
:1044D800B45A030820EA02080000040823016745CB
:1044E8006856030800F003080020024008B5FFF7EB
:1044F80037FFFFF79DFE0120BDE8084019F090BE88
:1045080038B504460068154628F069FE22682A4432
:10451800226038BD03685A1C026010B41970036821
:104528000A0A5C1C04601A7003680A0C5C1C0460AC
:104538001A700368090E5A1C026019705DF8044B62
:10454800704700BF03685A1C026019700368090AA3
:104558005A1C02601970704710EE103AC3F3160225
:1045680042F07E5207EE102ADFED167ADFED164A8A
:104578009FED165ADFED165A9FED166ADFED163AD3
:10458800DFED166A9FED164AE7EE274ADB1507EEC0
:10459800903AA4EE875AF8EEE77AE5EE075A67EE06
:1045A800A37AA5EE876AB5EEC00AE6EE077AF1EEC1
:1045B80010FAD4BFB0EE440AB0EE660A37EE800AAD
:1045C800704700BFDACDFE3CB9D593BE5CB8903FCA
:1045D800AA841DC022E061401872313F07F1B3C2BE
:1045E800000080FFDFED1D3ADFED1D7A9FED1D7A9B
:1045F8009FED1D4ADFED1D4A9FED1D5ADFED1D5A47
:104608009FED1D6ADFED1D6AE0EE237AF4EEC77AAE
:10461800F1EE10FA88BFF0EE477AF4EEC47AF1EEC4
:1046280010FAB8BFF0EE447AFDEEE77A17EE903A4A
:10463800C3F3160242F07E5207EE102AA7EE245A60
:1046480003F0FF4300EE103AE5EE075AA5EE876A3D
:10465800E6EE076A26EE800A704700BF3BAA384B91
:1046680000007E4E0000FF4E00000000ED185E3C8A
:1046780081900FBBAF9D2A3EB2D19F3EE886023F94
:1046880007EE901AF8EE677A9FED837A27EE800A94
:1046980020EE070AFDEEC07A17EE903A2033402B41
:1046A80000F28180DFED7D7AB4EEE70AF1EE10FAD0
:1046B80040F3E680B0EE407A9FED796ADFED796AE3
:1046C80001E0B0EE677AB4EEE67AF1EE10FA77EE32
:1046D800467AF6DC9FED747AF4EEC77AF1EE10FABA
:1046E80040F1D1809FED6E6ADFED706A01E0F0EE77
:1046F800477AF4EEE67AF1EE10FA37EE867AF6D4D7
:10470800DFED6B7AB4EEE77AF1EE10FA40F3A780AA
:10471800DFED627A37EEC77A27EE076ADFED655A72
:10472800DFED657ADFED656A9FED655AE6EE257A7D
:1047380067EE065AE6EE276AF7EE007AA5EEA67A45
:10474800F0EE675AE7EE055AE7EE457A87EEA55A86
:10475800DFED577A30EE277AFDEEC76A16EE903A0B
:104768002033402B24D99FED577AF6EE006AB7EE36
:10477800006AF7EE004AC4EEA57A0023836143611C
:104788000362C36180ED045A67EEA66A27EE866A63
:1047980027EE877AC0ED006AC0ED026A80ED016AF3
:1047A80080ED037A7047B7EE005AF0EE455ACFE72E
:1047B800B4EEE70AF1EE10FA6BDD9FED396ADFED32
:1047C800396A01E0B0EE677AB4EEE67AF1EE10FAF3
:1047D80077EE467AF6DC9FED347AF4EEC77AF1EE9E
:1047E80010FA53D59FED2E6ADFED306A01E0F0EE46
:1047F800477AF4EEE67AF1EE10FA37EE867AF6D4D6
:10480800DFED2B7AB4EEE77AF1EE10FA33DCDFED68
:104818002E7AB4EEE77AF1EE10FA44BFDFED227A91
:1048280037EEC77A27EE076ADFED224ADFED226A04
:10483800DFED227AE6EE246A67EE064AE6EE267A8D
:10484800B7EE006AA4EEA77AF6EE006A36EE476A7B
:10485800F8EE007A27EE277A66EE266A89E7DFED1A
:104868001A7AB4EEE77AF1EE10FA44BFDFED0E7A69
:1048780037EEC77A50E7DFED097A37EEC77AD1E726
:10488800F0EE407A26E7B0EE677A39E7B0EE677A5D
:10489800B6E7F0EE477A9EE727D4D236DB0F4940D9
:1048A800DB0FC940E4CB1641DB0F49C0E4CB16C18E
:1048B800DB0FC93F92E741B99730083C15A82ABEDB
:1048C800F304353F00000000DB0FC9BFFDEEC07ADE
:1048D80017EE903A2033402B45D8DFED2D7AB4EE11
:1048E800E70AF1EE10FA4DDDDFED2A6A9FED2A7A2C
:1048F80001E0B0EE670AB4EEC70AF1EE10FA70EE06
:10490800667AF6DC9FED257AF4EEC77AF1EE10FAB6
:104918003BD5DFED206A9FED227A01E0F0EE407A88
:10492800F4EEC77AF1EE10FA37EEA60AF6D4DFED08
:104938001D7AB4EEE70AF1EE10FA17DDDFED147A0E
:1049480037EEC00A60EE006A9FED176A9FED177A8E
:10495800DFED177AA6EE867A20EE266AE6EE877AEB
:10496800A6EE270A70479FED130A7047DFED127A0B
:10497800B4EEE70AF1EE10FA44BFDFED087A37EE3D
:10498800C00ADFE7F0EE407ABCE7B0EE670ACEE790
:10499800DB0F4940DB0FC940E4CB1641DB0F49C0B0
:1049A800E4CB16C1DB0FC93F92E741B99730083C09
:1049B80015A82ABE00000000DB0FC9BFDFED2E7A64
:1049C800B4EEE70AF1EE10FA4ADDDFED2C6A9FED4E
:1049D8002C7A01E0B0EE670AB4EEC70AF1EE10FADD
:1049E80070EE667AF6DC9FED277AF4EEC77AF1EE80
:1049F80010FA3ED5DFED216A9FED237A01E0F0EE53
:104A0800407AF4EEC77AF1EE10FA37EEA60AF6D439
:104A1800DFED1E7AB4EEE70AF1EE10FA14DDDFEDF1
:104A2800167A37EEC00A60EE006A9FED196A9FEDAC
:104A3800197ADFED197AA6EE867A20EE266AE6EE76
:104A4800877AA6EE270A7047DFED147AB4EEE70AF4
:104A5800F1EE10FA44BFDFED0B7A37EEC00AE2E759
:104A68009FED087AF0EE407AF4EEC77AF1EE10FA8C
:104A7800C0D4B0EE670ACBE7DB0F4940DB0FC94073
:104A8800E4CB1641DB0F49C0E4CB16C1DB0FC93FAD
:104A980092E741B99730083C15A82ABEDB0FC9BF79
:104AA800DFED317A30EE277AFDEEC76A16EE903ADE
:104AB8002033402B02D99FED2D0A7047B4EEE70A48
:104AC800F1EE10FA4DDD9FED2A6ADFED2A6A01E06A
:104AD800B0EE677AB4EEE67AF1EE10FA77EE467A3F
:104AE800F6DC9FED257AF4EEC77AF1EE10FA35D5AB
:104AF800DFED1F6A9FED217A01E0F0EE407AF4EED7
:104B0800C77AF1EE10FA37EEA60AF6D4DFED167A78
:104B1800B4EEE70AF1EE10FA1BDCDFED197AB4EE19
:104B2800E70AF1EE10FA44BFDFED137A37EEC00A58
:104B380060EE006A9FED136A9FED137ADFED137A3A
:104B4800A6EE867A20EE266AE6EE877AA6EE270A91
:104B58007047DFED0F7A37EEC00AE9E7B0EE670A73
:104B6800D4E7F0EE477ABCE7DB0FC93F000000004E
:104B7800DB0FC940E4CB1641DB0F49C0E4CB16C1BB
:104B8800DB0FC9BF92E741B99730083C15A82ABE88
:104B9800DB0F494002B370B48E1803E0121B14D126
:104BA800B14215D010F8012BA2F14103192B11F8CD
:104BB800013BA3F1410598BF2032192D03F12004D0
:104BC800ECD9D21A01D1002BEAD1104670BC70473B
:104BD8000022104670BC70471046704770B50446F6
:104BE80008460D4627F03AFB064602E014F8013F56
:104BF80043B1324629462046FFF7CCFF0028F5D1BD
:104C0800204670BD1C46204670BD00BF4FF0FF32E5
:104C1800FFF7C0BFA0F16103192B98BF2038704778
:104C2800A0F14103192B98BF20307047202805D0E8
:104C3800093804288CBF00200120704701207047E4
:104C4800613819288CBF0020012070474138192885
:104C58008CBF002001207047303809288CBF002005
:104C680001207047A0F13003092B07D920F020005C
:104C7800413819288CBF0020012070470120704757
:104C880038B501460B781846FFF7D0FF0A460131C0
:104C98000028F7D12B2B27D02D2B24D0A3F13004BB
:104CA800392B4FF00001154DE4B20FD8092C01EB58
:104CB80081030BD8A94213D810D004EB430112F892
:104CC800013FA3F13004392BE4B2EFD978B1B1F147
:104CD800004F28BF4FF00041484238BD052CECD9A1
:104CE8004FF0FF31EBE7012053780132D6E76FF040
:104CF8000040884228BF084638BD00BF99999919D5
:104D08000378202B024600F10100F9D0092BF7D0D7
:104D18002D2B00F0A4802B2B03BF5378B7EE000A8D
:104D28000246B7EE000AA3F13001C8B209289FED88
:104D3800577A10D8F2EE046A07EE901AF8EEE77A7E
:104D480012F8013FE7EE267AA3F13001C8B209282C
:104D5800B0EE677AF0D92E2B63D003F0DF03452B32
:104D680002D020EE070A704710B451782D294FD091
:104D78002B2979D0A1F13003092B02F101027AD84D
:104D88000024002303EB830301EB430312F8011F04
:104D9800A1F130000928A3F13003F3D9B3F59A7FC4
:104DA8001A4628BF4FF49A72072B6CD9DFED386A80
:104DB8001346F7EE007A083B072B67EEA67AFAD877
:104DC80002F00702DAB1F2EE046A012A67EEA67A67
:104DD80015D0022A67EEA67A11D0032A67EEA67AC2
:104DE8000DD0042A67EEA67A09D0052A67EEA67ABE
:104DF80005D067EEA67A062A18BF67EEA67A002CB9
:104E08003BD087EE277A5DF8044B20EE070A7047FF
:104E18009178A1F13003092B02F1020230D8012464
:104E2800AFE75378A3F13001C8B2092802F10102B3
:104E380093D8F2EE046AF0EE665A07EE901AF8EE8E
:104E4800E77A12F8013F87EEA66AA3F13001C8B2EB
:104E5800092866EEA56A37EE067AEED97DE753781B
:104E6800BFEE000A02465EE79178A1F13003092BF4
:104E780002F1020284D9F7EE007A27EE277AC2E718
:104E8800F7EE007ABDE7F7EE007A9BE70000000036
:104E980020BCBE4CF8B5064615460846B6FBF2F4EB
:104EA80034B905FB14640C4B1B5D00F8013BF8BDDD
:104EB800B4FBF2F75FB905FB1747074B05FB146412
:104EC800DA5D00F8012B1B5D00F8013BF8BD3846A0
:104ED800FFF7E0FFEFE700BF1C1B0308B5EEC00AB1
:104EE800DFED677A674AF1EE10FACCBF30EE270A99
:104EF80030EE670ADFED647A20EE270A2DE9F047E5
:104F0800FDEEC07A88B017EE904A84EAE476002372
:104F1800A6EBE476CDE902330493A2FB06325FEAFE
:104F2800D208054641D105AF58483946554BA3FB31
:104F38000623DB0803EB8303A6EB4303002CC35CC7
:104F48000B704FF00002ACBF20232D234A70384667
:104F58008DF8083027F082F90128394639D002281F
:104F680042D0032805BF302302A802A88DF80930D3
:104F780028F061F902A827F071F90338C4B2224673
:104F880002A9284628F08DF900232B55284627F03A
:104F980065F92E22431C02A92A542144E81828F056
:104FA80066F9284608B0BDE8F087394BA3FB06230D
:104FB8005B0922D105AF35483946324AA2FB08328F
:104FC800D20802EB8202A8EB4202835C01F8013BA3
:104FD800ACE7302302A88DF809308DF80A308DF837
:104FE8000B3028F028F9C5E7302302A88DF80930DE
:104FF8008DF80A3028F01FF9BCE7264AA2FB0612F2
:105008005FEA92190ED105AF204839461D4AA2FB26
:1050180003C2D20802EB8202A3EB4203C35C01F88D
:10502800013BCAE71C4AA2FB06125FEA523A0ED1BC
:1050380005AF16483946134AA2FB09C2D20802EB4B
:105048008202A9EB4202825C01F8012BDEE71348D9
:10505800B6FBF0F058B905AF39460A20BAFBF0F2B2
:1050680000FB12A20948825C01F8012BE3E705AFB7
:1050780039460A220193FFF70DFF019B0146ECE731
:105088006F12033ACDCCCCCC00007A441C1B030829
:105098001F85EB51D34D62105917B7D1A086010077
:1050A8000A44914215D010B40139541E11F8012F49
:1050B8000823504010F0800F4FEA400018BF80F0DE
:1050C800D500013BC0B2F5D1A142EFD15DF8044B48
:1050D800704770474840082310F0800F4FEA40009F
:1050E80018BF80F0D500013BC0B2F5D1704700BFB2
:1050F8002DE9F043002489B006460D461F46A04618
:1051080005E025290CD030460134A847039A531CE2
:10511800039311780029F4D1204609B0BDE8F08343
:10512800931CCDE903385078302842D0A0F13003E1
:10513800DBB2092B4FF0000945D96C282AD0642826
:1051480073D019D9732858D063D9752840F0828054
:1051580007F1040C386805AB00220A216746FBF703
:10516800BDF905AB049A009329464B463046FBF738
:1051780021FA039A0444CAE725283CD051D9582873
:105188006BD06328C2D139783046A8470437013438
:10519800039ABCE7039B5A1C03921B78642B52D0DA
:1051A80016D8252B27D064D9582B18D0632BEAD0D2
:1051B800ADE7D31C03939078A0F13003DBB2092B41
:1051C8004FF00109B9D804AA03A91FF0B9F8B4E748
:1051D800732B12D051D9752B2DD0782B97D1A3F1E1
:1051E8005802B2FA82F23868520905AB1021043726
:1051F800FBF774F9B5E7252185E73B68049A009326
:10520800294600233046FBF7D5F904370444039AAE
:105218007DE76E287FF47AAF039A3B6804371C60F9
:1052280075E700283FF478AF70E7386805A9FBF701
:105238001FF9043795E7386805AB00220A21FBF708
:105248004DF904378DE73B1D386805A91F46FBF764
:105258000FF986E778287FF459AFA0F15802B2FA1F
:1052680082F23868520905AB1021FBF737F9043789
:1052780077E7002B3FF450AF49E76E2BCDD046E7D8
:105288000EB400B584B005AB019053F8042B064961
:10529800039301A8FFF72CFF019B00221A7004B0AA
:1052A8005DF804EB03B07047B105000810B44C0971
:1052B800012250F8243001F01F0102FA01F10B43DA
:1052C80040F824305DF8044B704700BF4B0901F0EB
:1052D8001F0150F82320012303FA01F1114214BFE2
:1052E80018460020704700BFF0EEC07AB0EEE07AB2
:1052F800B4EEE77AF1EE10FAB4BFB0EE676AB0EE3A
:10530800476AB5EE406AF1EE10FA46D0B4EEE77A95
:10531800F1EE10FA8CBFF0EE675AF0EE475AC5EE80
:10532800866A9FED1F3A9FED1F6A9FED1F4A9FED0A
:105338001F5ADFED1F3ADFED1F4ADFED1F5AA6EEB9
:10534800C36AE6EEA34AA6EE864AB7EE006AA6EE60
:10535800845AA6EEA46AE6EE855AC5EE866AB4EECD
:10536800E77AF1EE10FA48BFDFED147AF5EEC00ADD
:1053780048BF77EEE66AF1EE10FA48BFDFED107A23
:10538800B5EEC00A48BF77EEE66AF1EE10FA48BFFC
:10539800F1EE666AB0EE660A7047DFED076ADEE78F
:1053A80039094E3DE3B59E3E88FA163E45FE7F3FDD
:1053B80099FB243F69A2163EA7DFA834DB0FC93F3B
:1053C800DB0F494038B5064C064DAC4206D2616841
:1053D80020461434FBF7F2FDAC42F8D338BD00BFC9
:1053E80068560308B45A030808B5FFF7EBFFFEF741
:1053F800B7FFBDE80840FCF795B800BF084B09495E
:105408008B4203D309E014338B4206D21A88C2F3C5
:105418000B029042F7D11846704700231846704790
:1054280068560308B45A0308074A92F86B3092F892
:105438006C00126F834296BFC31AC3F18003002029
:1054480018441044704700BF0C140020064808B5E3
:105458004368DB689847054B002283F86C2083F883
:105468006B201A6708BD00BF2C3C00200C140020DC
:1054780010B5044600BF8068FEF7A8F9606840F2DE
:10548800E93300E0B3B10289013B12F0020F9BB28D
:10549800F8D0017340F2E93300E05BB10289013BC7
:1054A80012F0010F9BB2F8D0037BA068FEF794F9C5
:1054B80000BF10BDFEF704FCA068FEF78DF900BF21
:1054C80010BD00BF0348436813B19B6A03B1184776
:1054D800014870472C3C002040EB02082DE9F04FB2
:1054E800DFF8149199F86B3099F86C70BB4287B06B
:1054F80064D009F1740202EB030196BFFB1AC3F1F1
:1055080080030027CDE90237CDE904121F44FFF7D5
:10551800D9FFB0F802A0002F4BD0D9F87030DFF8CF
:10552800D4802BE0D8F80430049E5B69AC4248D99B
:1055380031462A46404698472E4400230496A4EB59
:10554800050B0293039DD8F804306DB1AB455B6938
:10555800059E49D92A463146404698470023354496
:105568000393D8F8043005959B6940469847D9F8C5
:1055780070303F1B2344C9F870301AD0B3FBFAF4DB
:105588000AFB1433FA1852458CBFAAEB03043C46B5
:10559800FFF798FFD9F8701083688B4209D9D8F8BB
:1055A800043014481B699847029D002DBAD1A346C0
:1055B800C8E7002389F86C3089F86B3007B0BDE87C
:1055C800F08F04AA019202AAA34600925A463146D5
:1055D80040469847019AD8F804305E441660009A0D
:1055E800A5EB0B051560BFE705AA019203AA009277
:1055F800ECE700BF2C3C00200C1400202DE9F047FC
:1056080084B0FFF75FFF836813B904B0BDE8F08783
:10561800FFF758FF8568ED0A1BD0DFF84C8000269D
:10562800C14604AFD8F80430AC196410D3F824A0EC
:10563800E10210236A464846D0470F2809DD6B4629
:1056480053F8042B01320AD19F42F9D12546AE42C4
:10565800E8DBFFF743FF034BED021D67D5E7661C48
:10566800F5E700BF0C1400202C3C00202DE9F04188
:10567800054614460F46FFF725FF83682A199A4204
:1056880003D9FFF71FFF8468641BFFF727FF05484E
:1056980046682346746A3A462946A446BDE8F0415E
:1056A800604700BF2C3C00202DE9F04FB24B99B069
:1056B8001B7800AF002B52D1B04ADFF804A3127850
:1056C8009B4602F001037B635AF80B0C38B1FDF7D7
:1056D80039FE002840F007811AF8033C53B9A84B5B
:1056E8000AF1DC0A9A450BF1010BEDD16437BD468E
:1056F800BDE8F08FA34A5AF8071C1268521A632AA9
:10570800EDD9012B00F05D83022BE8D19E4B9F4C15
:10571800DB789F499F4A84F8FD00003318BF0123B6
:105728000B709D485AF80B3C13602362C4F8F8309C
:1057380004F1F40303609048984AC4F8F420012166
:105748004023017084F8FC30954806F044FC9548E5
:1057580006F05EFB4FF480501AF0ECF8BFE78E4B72
:1057680018680028C2D0FEF703FBDFF85092894B77
:105778001868FDF7E7FD0028B8D0864BDFF844A28B
:105788001868FDF7D7FD0928DAF800601AD03F2815
:1057980018D0002E6CD1042800F00F830C2800F0DC
:1057A8009B807F28E3D0A0F12003DBB25E2BDED8FC
:1057B8002028DCD0731C09F80600CAF8003006F06F
:1057C80020FBD4E7002E65D1774B354603F5987852
:1057D800002D46D008334345FAD1DFF8ECB12868EC
:1057E800DBF80020845D935D9C42304402EB0601A7
:1057F80040F06E82741E4C44324613B9FD2A40F2C2
:10580800FF8004F8013F0132CAF8002010F8013F78
:1058180011F801CF9C45F0D00AB1AB4513D06348CD
:1058280006F0F6FAAB4508D355F8080B06F0F0FA7F
:10583800092006F0E6FA5D45F6D95A4806F0E8FA76
:10584800DAF800200026B24291D9741E4C4414F8AC
:10585800010F06F0D6FADAF8003001369E42F6D388
:1058680085E703F1080242451D46B6D01346AFE767
:105878000C2831D00A2865D00D2863D07F2800F085
:10588800F381FF2E3FF673AFA0F12003DBB25E2B4E
:1058980090D96CE7444C4FF0000B04F598785D46BE
:1058A80002E0083444450DD0324621684846FFF7E7
:1058B80071F90028F5D1A346002DF2D12546083408
:1058C8004445F1D1002D8AD1BBF1000F3FF44FAF11
:1058D800364806F09DFAA7E7354806F099FA3148A8
:1058E80006F096FA43E7334B264A334E12684AF8D5
:1058F800072CDC25002405FB0B35AAF10B030AF85D
:10590800034C3B635AF80B0CFDF71CFD00283FF4D1
:10591800E6AE5AF80B0CFDF70DFD1AF8021C4B1EEB
:1059280002460B2B00F28F81DFE813F0810174012E
:1059380066013D012B010F01E300A0009300BC00AC
:105948007C00740006F0F2FA23211C4827F082FC40
:10595800002800F07581A0EB0903CAF80030002B7D
:105968003FD05A1E19F80210202918BF1A4640F0D5
:105978008781023B4B442FE01D310020F03100208D
:1059880023310020183C0020DD2700200C140020C3
:10599800D01F00208C64002090640020250300089C
:1059A800B81B03084C1B0308CC010308441B03085D
:1059B800541B0308842E00202E66002094640020C7
:1059C8008F2E002094650020F402030813F80119B3
:1059D800202940F053810246501E002AF6D1CAF809
:1059E80000204FF480720021484627F01CFCD94B58
:1059F8001B78002B3FF47AAED74806F009FAB6E6D2
:105A0800511C202009F80200CAF8001009F80130DA
:105A18000A4602E79AF8CE30934200F09B800AF8D3
:105A2800024C6FE711469AF8CE00FFF753FBDAF8FD
:105A3800C5308AF8CE00E9180133CAF8C530CA72F1
:105A4800DAF8C92093427FF45DAF0C230AF8023CD0
:105A580058E79AF8CD309AF8CE10534091428AF818
:105A6800CD30DCD106230AF8023C4BE711469AF800
:105A7800CE00FFF72FFBDAF8C5309AF8CD108AF878
:105A8800CE00E81851400133CAF8C5308AF8CD1065
:105A9800C272DAF8C92093427FF434AF09230AF8B6
:105AA800023C2FE7DAF8C530E91803F10108CAF813
:105AB800C580CA729AF8CE001146FFF70BFBB8F101
:105AC800050F8AF8CE007FF41DAFBAF80330BAF894
